:100000000C945E000C9486000C9486000C94860080
:100010000C9486000C9486000C9486000C94860048
:100020000C9486000C9486000C9486000C94860038
:100030000C9486000C9486000C9486000C94860028
:100040000C94A3020C9486000C9486000C948600F9
:100050000C9486000C9486000C9486000C94860008
:100060000C9486000C948600000000080002010039
:100070000003040700000000000000000000000072
:10008000250028002B0000000000240027002A0083
:10009000040404040404040402020202020203032E
:1000A0000303030301020408102040800102040836
:1000B00010200102040810206104A90411241FBEAD
:1000C000CFEFD8E0DEBFCDBF21E0A6E0B1E001C0B8
:1000D0001D92A632B207E1F711E0A0E0B1E0E6E838
:1000E000FCE002C005900D92A630B107D9F710E0F0
:1000F000CDE5D0E004C02197FE010E940305CC3578
:10010000D107C9F70E94ED020C9436060C9400004A
:100110008F929F92AF92BF92CF92DF92EF92FF9217
:1001200020910F013091100182179307B8F54B0110
:10013000AA24BB24F82DC52ED62EE72EFF24EC2DA5
:10014000342F20911401222361F0829E400111245A
:10015000F92DC29E60011124ED2D429FA0011124B2
:10016000352FAC01440F551F840F951F4091150189
:1001700050911601840F951F20911701DC01A20FE9
:10018000B11DFC9320911801DC01A20FB11DEC936D
:1001900020911901FC01E20FF11D3083FF90EF90D7
:1001A000DF90CF90BF90AF909F908F9008953FB712
:1001B000F89480910B0190910C01A0910D01B091E8
:1001C0000E0126B5A89B05C02F3F19F00196A11D71
:1001D000B11D3FBFBA2FA92F982F8827820F911DDD
:1001E000A11DB11DBC01CD0142E0660F771F881F24
:1001F000991F4A95D1F708950F931F93CF93DF93DB
:10020000CDB7DEB729970FB6F894DEBF0FBECDBFCE
:100210008091150190911601892B09F4A0C00E94CC
:10022000D70000911B0110911C0120911D013091FC
:100230001E01DC01CB01801B910BA20BB30BC297FB
:10024000A105B10560F3F89480911101909112011C
:100250009A838983E0911501F0911601DF011196CF
:100260008081898790911A01E0911F01F09120010E
:100270008091210191FF2EC09081982B98879081C9
:10028000809589238F838F818C8388E08B83588529
:100290006F8149853B812C8189819A81508347FDFB
:1002A000252F3A952083262F39F0441F00C00000E7
:1002B0006083000000C0F2CF38E04D916083000001
:1002C000019761F7F0932001E0931F0149873B8379
:1002D0002C8338C09081982B9887908180958923B2
:1002E0008F838F818E8388E08D8358856F814985C8
:1002F0003D812E8189819A81508347FD252F00C041
:1003000000C0208300C000C000C000C000C06083E7
:100310000000262F3A9541F0441F000000C000C0A5
:1003200000C000C000C0E8CF38E04D9100C060833D
:1003300000C0019709F7F0932001E0931F0149875E
:100340003D832E839A83898378940E94D70060939B
:100350001B0170931C0180931D0190931E0129962F
:100360000FB6F894DEBF0FBECDBFDF91CF911F91C6
:100370000F9108958F929F92AF92BF92CF92DF928A
:10038000EF92FF926B017C010E94D7004B015C0150
:10039000C114D104E104F104F1F00E94D700DC01A2
:1003A000CB0188199909AA09BB09883E9340A10588
:1003B000B10570F321E0C21AD108E108F10888EE16
:1003C000880E83E0981EA11CB11CC114D104E10465
:1003D000F10419F7DDCFFF90EF90DF90CF90BF9041
:1003E000AF909F908F900895CF92DF92EF92FF92FF
:1003F000CF93DF936B017C01C0E0D0E080910F01CF
:1004000090911001C817D90778F4B701A601CE0161
:100410000E9488000E94FC0062E370E080E090E0AF
:100420000E94BA012196EACFDF91CF91FF90EF9021
:10043000DF90CF9008958F929F92AF92BF92EF92EC
:10044000FF920F931F93CF93DF934B015C018AE0E0
:10045000E82EF12CC0E0D0E000E010E080910F0128
:10046000909110010817190750F4B501A401C801B3
:100470008C0F9D1F0E9488000D5F1F4FEFCF0E94C1
:10048000FC0062E370E080E090E00E94BA0100E0CE
:1004900010E080910F01909110010817190758F48E
:1004A00040E050E0BA01C8018C0F9D1F0E948800F7
:1004B0000D5F1F4FEECF2196C330D10569F681E065
:1004C000E81AF10839F6DF91CF911F910F91FF9053
:1004D000EF90BF90AF909F908F9008950F931F93D0
:1004E0008095853560F4682F660F860F282F20953C
:1004F00090E0A0E0B0E0BC01CD01822B21C08A3A9F
:1005000080F48555982F990F980F692F6095462F85
:1005100050E060E070E08A019B01192BC901B8012D
:100520000FC08A5A682F660F860F282F209590E0FB
:10053000A0E0B0E0DC0199278827BC01CD01722B37
:100540001F910F9108951F920F920FB60F921124D1
:100550002F933F938F939F93AF93BF938091070106
:1005600090910801A0910901B0910A013091060112
:1005700023E0230F2D3720F40196A11DB11D05C0E6
:1005800026E8230F0296A11DB11D2093060180933A
:10059000070190930801A0930901B0930A0180918B
:1005A0000B0190910C01A0910D01B0910E010196EB
:1005B000A11DB11D80930B0190930C01A0930D011F
:1005C000B0930E01BF91AF919F918F913F912F9169
:1005D0000F900FBE0F901F901895789484B582608D
:1005E00084BD84B5816084BD85B5826085BD85B5D7
:1005F000816085BD80916E00816080936E00109255
:1006000081008091810082608093810080918100CF
:100610008160809381008091800081608093800060
:100620008091B10084608093B1008091B0008160BE
:100630008093B00080917A00846080937A008091EA
:100640007A00826080937A0080917A008160809342
:100650007A0080917A00806880937A001092C100BD
:100660008091130190E0FC01EC55FF4F2491FC01B7
:10067000E057FF4F8491882399F090E0880F991FED
:10068000FC01EA57FF4FA591B491FC01E458FF4FDC
:10069000859194918FB7F894EC91E22BEC938FBFF6
:1006A0008091130190E0FC01E859FF4F2491FC0177
:1006B000EC55FF4F3491FC01E057FF4FE491EE23DE
:1006C000B9F1222339F1233091F038F42130A9F027
:1006D000223001F584B58F7D12C0273091F028308B
:1006E000A1F02430B9F4809180008F7D03C0809107
:1006F00080008F77809380000DC084B58F7784BD94
:1007000009C08091B0008F7703C08091B0008F7DC9
:100710008093B000F0E0EE0FFF1FE458FF4FA5916B
:10072000B4918FB7F894EC9130953E233C938FBFF2
:100730000E94FC00CC24CA94D12C90E0A92E90E019
:10074000B92E60E070E08FEF90E00E94F40160E06D
:100750007FEF80E090E00E94F4016FEF70E080E0B6
:1007600090E00E94F4016FE77FE78FE790E00E943E
:100770001B0260E070E08FE790E00E941B026FE7D1
:1007800070E080E090E00E941B0200E010E0C0E01A
:10079000D0E080910F0190911001C817D90758F44B
:1007A0008C2F800F0E946E02AB01BC01CE010E9413
:1007B00088002196EECF0E94FC0064E170E080E0AA
:1007C00090E00E94BA010F5F1F4F011581E01807EA
:1007D000F1F600E010E0E12CF12CC0E0D0E06091F7
:1007E0000F0170911001C617D70778F4C7010E9456
:1007F000DB04862F800F0E946E02AB01BC01CE018C
:100800000E9488002196F394EACF0E94FC0064E1E4
:1008100070E080E090E00E94BA010F5F1F4F011569
:1008200085E01807C1F6E12CF12CC0E0D0E000E033
:1008300010E080910F01909110010817190790F4B2
:10084000C8018E0D9F1DB6010E94EF040E946E022A
:10085000AB01BC01C8018C0F9D1F0E9488000D5F79
:100860001F4FE7CF0E94FC0062E370E080E090E061
:100870000E94BA0100E010E080910F0190911001F8
:100880000817190758F440E050E0BA01C8018C0F6E
:100890009D1F0E9488000D5F1F4FEECF2196C33031
:1008A000D10529F68FEFE81AF80AE11481E0F8067D
:1008B00009F0BBCFA114B10409F443CF0E9400009A
:1008C00040CFCF9382E090E09093100180930F018E
:1008D00086E090E09093120180931101C6E0C093EE
:1008E00013011092140183E080931A0110921B01EE
:1008F00010921C0110921D0110921E01E6E9F0E019
:10090000E491F0E0EE0FFF1FE458FF4F85919491C2
:100910009093200180931F01EAEAF0E0E491E093D4
:10092000210186E090E00E940905909316018093D2
:100930001501009721F0FC011192CA95E9F781E0B9
:10094000809317011092180182E080931901CF91D2
:100950000895CF93DF938091150190911601009730
:1009600011F00E949E058091130190E0FC01EC556E
:10097000FF4F2491FC01E057FF4F84918823C1F081
:1009800090E0880F991FFC01EA57FF4FC591D49161
:10099000FC01E458FF4FA591B4919FB7F89488816A
:1009A000E22FE0958E2388838C91E823EC939FBF00
:1009B000DF91CF910895AA1BBB1B51E107C0AA1F6D
:1009C000BB1FA617B70710F0A61BB70B881F991FF0
:1009D0005A95A9F780959095BC01CD01089597FB94
:1009E000072E16F4009407D077FD09D00E94DB048F
:1009F00007FC05D03EF4909581959F4F0895709522
:100A000061957F4F0895EE0FFF1F0590F491E02D43
:100A10000994CF93DF938230910510F482E090E047
:100A2000E0912401F091250120E030E0C0E0D0E029
:100A3000309711F14081518148175907C0F048178C
:100A4000590761F482819381209719F09B838A83EF
:100A50002BC0909325018093240126C021153105D8
:100A600019F04217530718F49A01BE01DF01EF0194
:100A70000280F381E02DDCCF2115310509F1281B1F
:100A8000390B2430310590F412968D919C91139777
:100A90006115710521F0FB019383828304C090935B
:100AA000250180932401FD01329644C0FD01E20F2F
:100AB000F31F81939193225031092D933C933AC0B7
:100AC0002091220130912301232B41F42091020136
:100AD00030910301309323012093220120910001E2
:100AE000309101012115310541F42DB73EB74091F8
:100AF000040150910501241B350BE0912201F09176
:100B00002301E217F307A0F42E1B3F0B2817390728
:100B100078F0AC014E5F5F4F2417350748F04E0F59
:100B20005F1F50932301409322018193919302C050
:100B3000E0E0F0E0CF01DF91CF9108950F931F9394
:100B4000CF93DF93009709F48CC0FC013297138296
:100B5000128200912401109125010115110581F4E3
:100B600020813181820F931F209122013091230136
:100B70002817390779F5F0932301E093220171C01A
:100B8000D80140E050E0AE17BF0750F412962D9107
:100B90003C911397AD012115310509F1D901F3CF2E
:100BA0009D01DA013383228360817181860F971F53
:100BB0008217930769F4EC0128813981260F371FCA
:100BC0002E5F3F4F318320838A819B819383828371
:100BD000452B29F4F0932501E093240142C013969C
:100BE000FC93EE931297ED01499159919E01240FC8
:100BF000351FE217F30771F480819181840F951FEF
:100C0000029611969C938E938281938113969C9366
:100C10008E931297E0E0F0E0D80112968D919C91AE
:100C20001397009719F0F8018C01F6CF8D919C91E4
:100C300098012E5F3F4F820F931F20912201309128
:100C400023012817390769F4309729F410922501F8
:100C50001092240102C01382128210932301009388
:100C60002201DF91CF911F910F91089510E0CDE502
:100C7000D0E004C0FE010E9403052196CE35D107C5
:060C8000C9F7F894FFCF54
:060C8600000026018000C1
:00000001FF
